:020000040800F2
:1000000000200020FD2F0008B10B0008B30B0008F2
:1000100000000000000000000000000000000000E0
:10002000000000000000000000000000B50B000808
:100030000000000000000000B70B0008B90B00082A
:100040004D3000084D3000084D3000084D3000089C
:100050004D3000084D3000084D3000084D3000088C
:10006000000000004D3000084D3000084D30000801
:100070004D3000084D300008000000004D300008F1
:10008000000000004D3000080000000000000000EB
:100090004D300008000000004D3000084D300008D1
:1000A0004D3000084D3000084D3000084D3000083C
:1000B0004D3000084D300008000000000000000036
:1000C000054B0648033310B51B1A062B03D9044B06
:1000D000002B00D0984710BD6C1400206C14002039
:1000E000000000000648074910B5091A8910CB0F17
:1000F0005918491003D0044B002B00D0984710BD6D
:100100006C1400206C1400200000000010B5074C97
:100110002378002B09D1FFF7D3FF054B002B02D02A
:10012000044800E000BF0123237010BD6C140020C0
:100130000000000050300008094B10B5002B03D020
:100140000849094800E000BF08480368002B02D1B5
:10015000FFF7C8FF10BD064B002BF9D09847F7E713
:100160000000000070140020503000086C140020C3
:100170000000000070B50D4E0D4D0024AD1BAD10FC
:1001800005D0A300F35801349847A542F9D102F0F5
:100190005FFF084E084D0024AD1BAD1005D0A30035
:1001A000F35801349847A542F9D170BDA430000836
:1001B000A4300008A4300008A8300008F0B5830778
:1001C00043D0541E002A3FD0CEB20200032502E0E5
:1001D0001A00013C38D3531C16702B42F8D1032C63
:1001E0002AD9FF220A40150215432A0415430F2C71
:1001F00014D927001A00103F3E09013636019E1916
:10020000156055609560D56010329642F8D10F2286
:1002100097431037DB191440032C0DD91A00271F00
:10022000BE080136B6009E1920C2B242FCD103229C
:1002300097430437DB191440002C05D0C9B21C19B0
:10024000197001339C42FBD1F0BD14000300C6E7D6
:1002500002B4714649084900095649008E4402BC5F
:100260007047C04602B4714649084900095C49001C
:100270008E4402BC7047C046002243088B4274D3B0
:1002800003098B425FD3030A8B4244D3030B8B4297
:1002900028D3030C8B420DD3FF22090212BA030CA0
:1002A0008B4202D31212090265D0030B8B4219D381
:1002B00000E0090AC30B8B4201D3CB03C01A5241A1
:1002C000830B8B4201D38B03C01A5241430B8B42E9
:1002D00001D34B03C01A5241030B8B4201D30B03D2
:1002E000C01A5241C30A8B4201D3CB02C01A5241F9
:1002F000830A8B4201D38B02C01A5241430A8B42BC
:1003000001D34B02C01A5241030A8B4201D30B02A4
:10031000C01A5241CDD2C3098B4201D3CB01C01ABE
:10032000524183098B4201D38B01C01A52414309C8
:100330008B4201D34B01C01A524103098B4201D3B6
:100340000B01C01A5241C3088B4201D3CB00C01A23
:10035000524183088B4201D38B00C01A524143089B
:100360008B4201D34B00C01A5241411A00D20146C0
:10037000524110467047FFE701B5002000F006F833
:1003800002BDC0460029F7D076E770477047C046E7
:10039000002B11D1002A0FD1002900D1002802D052
:1003A0000021C943081C07B4024802A1401802906A
:1003B00003BDC046D9FFFFFF03B4684601B50298EC
:1003C00000F030F8019B9E4602B00CBC7047C0465E
:1003D000F0B5CE46474615042D0C2E0080B5070417
:1003E000140C3F0C9946030C7E435D436743634303
:1003F0007F19340CE4199C46A54203D980235B0283
:100400009846C4444B46514343433604360C250CAE
:1004100024046544A4195918491920000CBC9046BD
:100420009946F0BDF0B557464E464546DE46E0B526
:10043000040083B00D00924699468B422FD82CD0F1
:100440004946504600F0AEF829000600200000F0B2
:10045000A9F8331A9846203B9B4600D574E05346D2
:100460005A4693401F005346424693401E00AF42F7
:1004700029D826D05B46A41BBD41002B00DA79E0C9
:10048000002200230092019301235A4693400193D6
:10049000012342469340009319E08242D0D90022C2
:1004A0000023009201930C9B002B01D01C605D6027
:1004B0000098019903B03CBC90469946A246AB46D1
:1004C000F0BDA342D6D900220023009201934346F7
:1004D000002BE8D0FB0772081A4346467B080EE063
:1004E000AB4201D1A2420CD8A41A9D41012024198B
:1004F0006D410021013E24184D41002E06D0AB4233
:10050000EED9013E24196D41002EF8D15B460098CA
:10051000019900196941002B22DB2B005A46D34078
:100520002A004446E2401C005B461500002B2CDBF1
:1005300026009E40330026004746BE403200801A07
:10054000994100900191AEE7424620239B1A524602
:10055000DA40414613004A468A4017001F4382E7AB
:10056000424620239B1A2A0046469A402300F34025
:100570001343D5E74246202300219B1A0022009115
:1005800001920122DA40019282E7424620232600AE
:100590009B1ADE402F00B446974066463B0033432B
:1005A000C9E7C04610B5002903D100F007F8203094
:1005B00002E0081C00F002F810BDC0461C21012317
:1005C0001B04984201D3000C10391B0A984201D336
:1005D000000A08391B09984201D30009043902A214
:1005E000105C40187047C04604030202010101017B
:1005F000000000000000000030B59BB03422002154
:100600000DA8FFF7DBFD1422002101A8FFF7D6FD9E
:100610001C22002106A8FFF7D1FD1349134A0B68DD
:1006200000241A4080231B0113430B600223012581
:100630000D930DA80E3311931095169401F09EFCA6
:100640000F23210001A801930295039404940594BB
:1006500001F0E2FE092306A8069308940B9401F02A
:10066000C9FF1BB030BDC04600700040FFE7FFFF70
:1006700010B501F007FCFFF7BFFF00F011F800F024
:100680005FF900F0F6F800F0F7FE00F055FFFA20F1
:10069000400001F01DFC00F049F9FCE77047000044
:1006A000F0B589B01422002103A8FFF787FD0420CC
:1006B0000126364BA025D96AED050143D9620221F6
:1006C000DA6A002402400092009ADA6A2800324373
:1006D000DA62DA6A032732400192019ADA6A0A433F
:1006E000DA62DB6A00220B400293F231029B02F0D5
:1006F00083F900220321264802F07EF9C02303A9D2
:100700001B02244803930497059402F039F8224B06
:1007100003A9280003930497059402F031F8F42309
:1007200003A92800039304960594069402F028F880
:1007300008230393882303A95B03280004930594EB
:1007400002F01EF803A91248039704960594069434
:1007500002F016F8802303A95B0028000393049499
:10076000059402F00DF8382303A909480393049770
:10077000059402F005F822002100062002F042F95B
:10078000062002F06FF909B0F0BDC046001002402B
:100790000004005000080050039800007FB50020BE
:1007A00000F0B8FC012000F0B5FC022000F0B2FC23
:1007B000002000F0C5FC9620400001F089FB0120DC
:1007C00000F0BEFC9620400001F082FB022000F009
:1007D000B7FC9620400001F07BFB002000F0EAFC13
:1007E000051EFAD16B469E1D01003070082202A83A
:1007F000FFF7E4FC6B46DC1D21002800257000F0AB
:1008000049FD2078002803D10299039A00F01AFDCF
:100810000021080000F01EFD002000F043FD310023
:10082000002000F01FFD3078002812D1210000F0D8
:1008300031FD2078002803D10299039A00F002FDCF
:100840000121002000F016FD7B220020110000F0A5
:10085000F9FC0024002000F035FD00F07FFC2100B1
:100860002200200000F0EEFCB021200000F0DAFCB5
:100870007FBD10B5FFF792FF10BD0000F0B500245A
:1008800085B06B4602AD0622210028009E1DDC804B
:10089000FFF794FC204B1B78012B21D1290020006D
:1008A00000F008FDAF78012F17D13100200000F0D3
:1008B00011FD35880135ADB23580184E032D11D1AB
:1008C0003460174B32689A4207D1002315483360D1
:1008D00000F058FE144801F0FBFA00230E4A137092
:1008E00005B0F0BDC82DECD1A0203A000421C00510
:1008F00002F082F833680B492200591820002B00BF
:1009000000F0C0FCA02033682200C8330421C005D9
:10091000336002F071F8D4E7881400208C140020B2
:100920008813000000000020B80B000010B5FFF78E
:10093000A5FF10BD0122014B1A70704788140020DA
:100940000B480C4B10B50360E1235B0243600C22A3
:10095000002342618360C36003618361C3610362FA
:10096000436202F0EBFA002801D0FFF797FE10BDBA
:10097000C01400200038014010B5040086B01422D5
:10098000002101A8FFF71AFC104B22689A421BD1E4
:1009900080220F4BD201596BA0200A4301215A63D8
:1009A000DA6AC0050A43DA62DB6A0B400093009BF7
:1009B000C023DB000193022302935B1804935B18AE
:1009C00001A9059301F0DCFE06B010BD003801401E
:1009D000001002400F4A10B51368002B01D100200F
:1009E00010BD013B1360002BF9D10B4A0B49936BEF
:1009F0000B480B409363402101F082FF084880219F
:100A000001F07EFF074800F058FF0028E7D00820DB
:100A10004042E5E79014002000100240FFFFDFFF96
:100A2000000400504815002080230A005B010100EB
:100A300010B5044801F020F90023984200D0033B90
:100A4000180010BD4815002030B580250C4C85B02D
:100A50006D010193009202230A000295010020001B
:100A600000F046FF0023984207D0200001F09AF9D9
:100A70000423042800D166235B42180005B030BD72
:100A80004815002030B580250C4C85B06D010193D0
:100A9000009202230A0002950100200001F008F8EC
:100AA0000023984207D0200001F07CF90423042899
:100AB00000D066235B42180005B030BD4815002009
:100AC000F8B500250127104B856003600F4BC76008
:100AD0004360056145618561C5610562040000F000
:100AE00095FE29000600200001F05EF9A84202D11F
:100AF000751EAE41F7B20021200001F07BF90028FD
:100B000000D001273800F8BD005400401A0610003C
:100B1000F0B5224B224A234D87B02B601368591C35
:100B20001160002B38D1280001F038F9002833D1AA
:100B300002211D4C0126E26A12270A43E262E36A9F
:100B40001A480B400093009B402301A901933D3BB1
:100B5000049302970396059601F012FE802301A9E3
:100B6000019312487D3B049302970396059601F08A
:100B700007FE8023A26B9B031343A3632800FFF7A8
:100B80009FFF011E03D00820404207B0F0BD28009F
:100B900001F00AF90028F6D10020F6E700540040E1
:100BA000901400204815002000100240000400505E
:100BB0007047FEE77047704710B501F077F910BD38
:100BC0000122054B596B0A435A638022996B5205E7
:100BD0000A439A637047C0460010024010B544684B
:100BE0008068A04710BD10B504688068A04710BD9C
:100BF00010B50A0001231721FFF7F0FF431E9841AB
:100C0000404210BD10B50A000C0001230D21FFF772
:100C1000E5FF002804D1012223781340237010BD82
:100C200001204042FBE773B56B46DC1D0E0001233B
:100C300022000D210500FFF7D1FF00280FD101236D
:100C40002178327899431A400A4322700D212200FC
:100C50002800FFF7C8FF431E9841404276BD01209F
:100C6000FBE7000010B50A0001230349FFF7B6FFB8
:100C7000431E9841404210BD0720000073B56B46EB
:100C8000DC1D0E00012322000B490500FFF7A6FF23
:100C900000280FD101232178327899431A400A4362
:100CA0002270054922002800FFF79DFF431E98414E
:100CB000404276BD0120FBE70620000010B50A0087
:100CC00001230349FFF78AFF431E9841404210BDAC
:100CD0000620000010B50A0001230021FFF77EFF67
:100CE000431E9841404210BD10B50A000123002167
:100CF000FFF779FF431E9841404210BD73B56B4624
:100D0000DC1D0E000123220002210500FFF766FF13
:100D100000280FD101232178327899431A400A43E1
:100D20002270022122002800FFF75DFF431E984138
:100D3000404276BD0120FBE773B56B46DC1D0E001B
:100D4000012322000B490500FFF748FF00280FD1BF
:100D500001232178327899431A400A4322700549C9
:100D600022002800FFF73FFF431E9841404276BD16
:100D70000120FBE70220000010B50A000C0001234F
:100D80000649FFF72BFF002804D1012223781340E6
:100D9000237010BD01204042FBE7C0460420000044
:100DA00010B58368A620984710BD70B50D00046982
:100DB0001100A6202A00A04770BD0000F0B5070072
:100DC0001E0085B0029201918023341C5B009E427C
:100DD00001D9194B1C88A4B2FD682300019A02991D
:100DE000A620A847051E11D17B69984703900121D1
:100DF000BB68A62098477B6905009847039BC01AEB
:100E00004023FF33984211D8002DF0D1019B361BAF
:100E10001B190193029BB6B21A1993B20293002ECA
:100E200001D0002DD0D0280005B0F0BD002DEDD0B0
:100E300003256D42EAE7C0466830000810B5183057
:100E4000FFF7D6FE10BD436A37B50400002B0CD166
:100E50006B46DD1D2900FFF7F1FF02222B7893433B
:100E6000242B02D0012040423EBD012300206362BA
:100E7000FAE737B56B46DC1D0D0018302100FFF78F
:100E800029FF002801D123782B803EBD07B56B4692
:100E9000D980063318301900FFF726FF0EBD10B5B4
:100EA0000469880402D5A620A04710BDAE20FBE748
:100EB00070B50500C468880404D5A620A0470400C6
:100EC000200070BDAE20A047041EF9D16B69984781
:100ED00006000121AB68AE2098476B690400984773
:100EE0004023FF33801B984202D8002CF1D1E7E762
:100EF000002CE5D003246442E2E7000010B500288E
:100F000002D10120404210BD4A680B684260CA68A5
:100F10000360C2600A6902618A6882604A6900628D
:100F20004261054AC261054A8261002BE9D09847B7
:100F3000431E9841E6E7C0469F0E0008B10E000828
:100F4000F0B5060017001D0085B000918022002337
:100F50005200954200D82B00DAB20292FF221A40CA
:100F600001921300F468009A3900AE20A047041ED5
:100F700011D17369984703900121B368A62098475F
:100F8000736904009847039BC01A4023FF339842BB
:100F900012D8002CF0D1029A009B9446634400932F
:100FA000019BED1AFF18ADB2BFB2002D01D0002C8D
:100FB000CCD0200005B0F0BD002CECD0032464425E
:100FC000E9E7F0B589B003AC0F001600002111224B
:100FD00005002000FFF7F2F80923390023723200E0
:100FE0002300182016000F00C640C740F6B208388C
:100FF0001E715E730600FFB21F705F720133083608
:10100000F0D190221123120121002800FFF798FF50
:1010100009B0F0BD07B56B46D97107331830190018
:10102000FFF76CFE0EBD37B56B46DD1D0C001830AA
:101030002900FFF7E7FD002804D12B78002B02D010
:10104000012323703EBD2070FCE707B56B46D971C4
:10105000073318301900FFF7E6FD0EBD70B50D001F
:10106000802149008A4207D805490469521891B283
:10107000A6202A00A04770BD01204042FBE7C046E1
:101080000820000037B56B46DD1D0C001830290024
:10109000FFF772FE002804D12B78002B02D0012329
:1010A00023703EBD2070FCE707B56B46D91D0123B8
:1010B00018300B70FFF740FE0EBD37B56B46DD1DD7
:1010C0000C0018302900FFF7F9FD002812D12B7809
:1010D00001221900114021705910114061709910BE
:1010E0001140A17019111140E17059110A409B097A
:1010F000227163713EBD07B56B46D91D01231830BF
:101100000B70FFF7BBFD0EBD10B51830FFF7AAFD41
:1011100010BD000010B5094BC000C25A86B0019244
:10112000012200241B1802925868921801A9049207
:10113000039401F025FB200006B010BDAC13002085
:1011400010B5054BC000C15A1B185868012201F0A8
:1011500053FC002010BDC046AC130020082330B55E
:1011600087B001938823A0205B030024029302230D
:1011700001A9C0050493039401F002FB0A4D0B4939
:10118000280001F09CFC2100094A280001F090FC95
:1011900022002100062001F035FC062001F062FC4F
:1011A000200007B030BDC046A41300200300000695
:1011B0003509000830B5124B87B00093114B124D22
:1011C0000193124B69460293114B28000493114B73
:1011D0000393114B0593FFF791FE00280BD10F4BA2
:1011E0000F4C23601B68002B03D028009847002871
:1011F00003D0002323600120404207B030BDC04629
:10120000110B0008D509000894140020290A0008D1
:10121000850A0008490A0008C51E00088813002036
:10122000BC140020054B10B51B681B69002B02D0B5
:101230000348984710BD01204042FBE7BC14002042
:101240009414002007B50248FFF7BBFE0EBDC04650
:101250009414002010B50248FFF7DCFE10BDC04614
:101260009414002010B50248FFF7DDFE10BDC04603
:101270009414002010B50248FFF7E7FE10BDC046E9
:101280009414002010B50248FFF7E8FE10BDC046D8
:101290009414002010B50248FFF7F4FE10BDC046BC
:1012A0009414002010B50248FFF7FEFE10BDC046A2
:1012B0009414002010B50248FFF7FFFE10BDC04691
:1012C0009414002010B50248FFF715FF10BDC0466A
:1012D0009414002010B50248FFF716FF10BDC04659
:1012E0009414002010B50D4C01220221200001F0C1
:1012F00083FBC82000F0ECFD00220221200001F059
:101300007BFB022000F0E4FD01220221200001F01D
:1013100073FBC82000F0DCFD10BDC0460004005087
:1013200070B58025A0246D00E4052900200001F09F
:101330005DFB012800D070BD0A2000F0C9FDF4E774
:10134000F8B5A026050008244027F605A0200022B5
:101350003900C00501F050FB6BB20122002B00DB0D
:10136000002220213000013C01F046FB6D000122EB
:1013700039003000E4B2EDB201F03EFB002CE5D1C3
:10138000F8BD000070B50122A02405001100E4059D
:10139000084801F031FB00228021200001F02CFBE5
:1013A0002800FFF7CDFF01228021200001F024FB5F
:1013B00070BDC0460004005070B5A0240500E405CF
:1013C00000220121084801F017FB002280212000A3
:1013D00001F012FB2800FFF7B3FF0122802120005B
:1013E00001F00AFB70BDC0460004005070B5040057
:1013F00032202600FFF7E0FF2500993628780135D6
:10140000FFF7C0FFB542F9D1FFF78AFF3F20FFF792
:10141000D3FF2878FFF7B6FF0320FFF7CDFF2300A7
:101420009A331878FFF7AEFF0420FFF7C5FF2300BB
:101430009B331878FFF7A6FF23009C331878FFF73B
:10144000A1FF23009D331878FFF79CFF9E342C20CA
:10145000FFF7B2FF2078FFF795FF70BD10B522208F
:10146000FFF7AAFFC720FFF78DFF2020FFF7A4FF9B
:10147000FFF756FF10BD000010B5FFF733FFFFF771
:101480004FFF1220FFF798FFFFF74AFF0120FFF7F9
:1014900093FFC720FFF776FF0020FFF773FF0120BF
:1014A000FFF770FF1120FFF787FF0120FFF76AFFAA
:1014B0004420FFF781FF0020FFF764FF1820FFF7AB
:1014C00061FF4520FFF778FFC720FFF75BFF002093
:1014D000FFF758FF0020FFF755FF0020FFF752FFEE
:1014E0003C20FFF769FF0120FFF74CFF1820FFF7B2
:1014F00063FF8020FFF746FF2220FFF75DFFB1204A
:10150000FFF740FF2020FFF757FF4E20FFF754FF63
:101510000020FFF737FF4F20FFF74EFFC720FFF7F0
:1015200031FF0020FFF72EFFFFF7FAFE0148FFF71B
:101530005DFF10BDC413002070B52420FFF73CFFF1
:10154000C82519263400013CFF20A4B2FFF71AFF7A
:10155000002CF8D1013DADB2002DF3D12620FFF7CC
:101560002BFFC82519263400013CFF20A4B2FFF749
:1015700009FF002CF8D1013DADB2002DF3D1FFF7EA
:101580006DFF70BD70B504002420FFF715FF074BF9
:10159000E6180025605D0135FFF7F4FE192DF9D13D
:1015A0001934A642F5D1FFF759FF70BD881300002A
:1015B00003689A69920701D500229A62012299690B
:1015C000114202D199690A439A61704730B5039C70
:1015D00089052343890D194380230568DB00640DC9
:1015E0001C401204044B68680A431C435200A04389
:1015F000520802436A6030BDFF63FF03F7B517006E
:101600001022036804009D690E001540281E0FD0AB
:10161000DA61002320250193009323689A692A4206
:1016200064D1009A002A32D004250120019B1D4379
:101630008021236849009A690A4202D00120D961B9
:1016400005438021C9000A4203D00820D96105431F
:101650000738802189000A424DD00222D961154302
:101660002000FFF7A5FF22682449536801200B40A2
:101670005360636C20221D432300413365641A705C
:1016800022000023423240341370237035E0721C74
:10169000C4D000F017FCC01B864201D3002EBCD181
:1016A00022002368423258681178CAB280219446D9
:1016B0009A6909020A420CD08022D201104208D154
:1016C0006146202905D059680A435A6000F0FAFBA8
:1016D000070023689B692B429FD100F0F3FBC01BDE
:1016E0001928F6D901230195009396E7009A002A5C
:1016F0009AD1DD6198E70028B2D1FEBD00E800FE76
:10170000F8B504000D001700022623689B693342D8
:1017100001D00020F8BD3A0029002000FFF76EFF3D
:10172000002816D16B1CF0D000F0CCFBC01B85420A
:1017300001D3002DE9D123689B693340E5D12021F5
:10174000626C0A436264220040344132117053706B
:1017500023700120DEE7F8B504000E0017002025F5
:1017600023689B692B4201D00020F8BD3A0031006C
:101770002000FFF743FF002813D100F0A3FBC01B9C
:10178000864201D3002EEBD123689B692B40E7D121
:10179000626C2A43626422004034413215705370F7
:1017A00023700120E1E7F7B504000D001E0001924F
:1017B000226897692F407F1B7B425F41019B9F42BC
:1017C00001D000201FE0731CF3D000F07BFB089BCE
:1017D000C01A864201D3002EEAD123689B692B40B0
:1017E0005B1B5A4253419F42E2D12022636C01208D
:1017F00013436364230041331A70220000234232F2
:10180000403413702370FEBD7047000070B50400B3
:101810000120002C3FD0250041352B78DBB2002B76
:1018200005D12200403213702000FFF7EDFF242382
:1018300001212B702368E0681A68A6688A431A6041
:1018400061681A4A0A401A619968194A11409960F8
:10185000012821D180210902314399605868154936
:1018600001435960D96800200A40DA606169226941
:101870000A43A16909020A43DA60216AE2690A435C
:101880001A60012219680A431A60202360642B70D1
:1018900020634234207070BD842109023143996075
:1018A0000228DBD1802109015960D7E7FFFFFFF053
:1018B000FF7FFFFF00800002704770B50400012029
:1018C000002C13D025002423226841352B70136887
:1018D000834313602000FFF7EFFF002023006064C4
:1018E00042332870206340341870207070BD0000AF
:1018F000F0B589B004930EAB039204CB04001B88AF
:10190000059206930300413307931B780E000220D3
:10191000202B00D0B2E0002A02D0069B002B04D17D
:1019200080239B0063640120A8E0230040331A78E1
:10193000012A00D1A2E001271F7000F0C3FA802124
:101940000500009019233A0009022000FFF72BFF41
:101950000028E8D121232700079A423713701F334C
:101960003B70059B606463626B461B8B60636385A1
:101970006B461A7C4C4B31000093802320005B04A3
:10198000FFF724FE2A0010992000FFF7B9FE002877
:1019900010D1049A2368012A10D16A46127B9A62F8
:1019A0000095109B002280212000FFF7FCFE0028FC
:1019B00000D16DE0002340342370B4E7039A1099FE
:1019C000120A9A6220002A00FFF79AFE0028F1D13D
:1019D0006B4622681B7B9362E2E7FF22802322850D
:1019E0005B04009031002000FFF7F0FD2A00109901
:1019F0002000FFF785FE002895D1636A22681978D8
:101A0000013391626362638D228D013B9BB26385DA
:101A1000013A638D92B22285002B17D0002A15D18E
:101A20000095109B80212000FFF7BDFE002800D00C
:101A300079E7638DFF2B23D9FF2323858023FF22A2
:101A400000905B0431002000FFF7C0FD638D002B88
:101A5000CCD12A0010992000FFF77DFE002800D08D
:101A600061E720212368114DD9615A682A405A60E4
:101A700023004034413319703870207009B0F0BD34
:101A80008023628D9B0492B22285D2B20090D9E766
:101A9000638DFF2BA1D88023628D9B0492B2228597
:101AA000D2B200909EE7C0460020008000E800FE11
:101AB000F0B589B004930EAB039204CB04001B88ED
:101AC000059206930300413307931B780E00022012
:101AD000202B00D0B3E0002A02D0069B002B04D1BB
:101AE00080239B0063640120A9E0230040331A781F
:101AF000012A00D1A3E001271F7000F0E3F9802143
:101B00000090192305003A0009022000FFF74BFE60
:101B1000031EE8D122222700079942370A701E329D
:101B20003A70059A606462626A46128B4F49628518
:101B30006A466063127C200000913100FFF746FD89
:101B40002A0010992000FFF7DBFD002810D1049A2D
:101B50002368012A10D16A46127B9A620095109B75
:101B6000002240212000FFF71EFE002800D170E077
:101B7000002340342370B6E7039A1099120A9A6240
:101B800020002A00FFF7BCFD0028F1D16B46226837
:101B90001B7B9362E2E7FF222285009380235B0494
:101BA00031002000FFF712FD0095109B0022042158
:101BB0002000FFF7F8FD002895D12368626A5B6A70
:101BC0001370636A228D01336362638D013A013BB6
:101BD0009BB26385638D92B22285002B17D0002AB9
:101BE00015D10095109B80212000FFF7DCFD002817
:101BF00000D078E7638DFF2B23D9FF232385802333
:101C0000FF2200905B0431002000FFF7DFFC638DB2
:101C1000002BC9D12A0010992000FFF79CFD002855
:101C200000D060E720212368114DD9615A682A400D
:101C30005A6023004034413319703870207009B065
:101C4000F0BD8023628D9B0492B22285D2B20090B7
:101C5000D9E7628D074BFF2A9DD8628D92B222850B
:101C600000938023D2B29B049AE7C04600200080F4
:101C700000E800FE00240080F0B507001D000023EE
:101C800089B005910492079341373B780400022004
:101C9000202B53D123689A6980231B0213404DD116
:101CA000210040310A78012A48D001220A702421FB
:101CB000039239706364059B22689905E368890D76
:101CC000012B1FD1334B0B43536000F0FBF8060090
:101CD00022680399936992695B0912090B400A40D3
:101CE000134311D023689A69102300961A402B00E1
:101CF000002A25D120212000FFF755FD002815D00E
:101D000001201BE0244BDEE76B1CE1D000F0DAF889
:101D1000801B854201D3002DDAD120233B70626CF9
:101D200040341343636000232370E9E720232268D3
:101D3000D3612200403441321370207009B0F0BDED
:101D4000002220212000FFF72EFD021ED8D11021F5
:101D500023680498D9614918D961079981420FD144
:101D600080215868C90101435960200000962B006A
:101D70002021FFF718FD0028C2D120222368DA6154
:101D8000079B049A01330793079B9A4200D992E775
:101D9000C3E7C0460020000200280002413000785E
:101DA000C0B27047406C7047F0B5040041342278EF
:101DB0000300D2B20220202A18D11D0040352E780F
:101DC000012E13D01B68223020701E6823388643F2
:101DD0001E601E68064F3E401E601E68314319603B
:101DE000196808431860002022702870F0BDC046B2
:101DF000FFEFFFFFF0B5050041352A780300D2B2AE
:101E00000220202A17D11C0040342678012E12D03F
:101E10001B68223028701E68233886431E601E68A7
:101E2000054F09023E4031431960196808431860A4
:101E300000202A702070F0BDFFF0FFFF70B5050094
:101E4000FA200D4B80001978FEF716FA0B4B0100B3
:101E50001868FEF711FA00F011FE04000120002CB2
:101E600009D1032D07D802382200290000F0CAFD4D
:101E70002000034B1D6070BD631400206814002017
:101E8000641400204023084A10B5116800200B4359
:101E90001360FFF7D3FF041E03D1FEF791FE20006D
:101EA00010BD0124FBE7C04600200240034A044B5A
:101EB00011681B785B1813607047C0469C150020A2
:101EC00063140020014B18687047C0469C15002021
:101ED00070B50400FFF7F6FF0500631C02D0044B49
:101EE0001B78E418FFF7EEFF401B8442FAD870BD60
:101EF000631400200C231C4A70B5D4682340082BBF
:101F00002ED00C2B06D0042B22D11368DB0629D44B
:101F1000164870BDA30216491B0FC85C802324021B
:101F2000D568A40F5B0201341D4009D0114A00237B
:101F30000021FEF74DFA22000023FEF729FAE8E718
:101F4000102316681E4001D00B4AF0E7074AEEE75F
:101F50008020536800021B045B0F01339840D8E7D0
:101F60000448D6E70448D4E7001002400024F400F7
:101F70009330000800127A0000093D00F0B505001A
:101F800087B0002802D1012007B0F0BD0C23BD4C62
:101F9000E668E2681E4080235B021A4001920268F4
:101FA000D2073ED42B689B0700D584E02B68DB0664
:101FB00029D5002E00D0D7E023689B0502D5AB6958
:101FC000002BE0D06268B0492B6A0A401A43626075
:101FD0006168EA690902090A12060A4362608022FE
:101FE0005B0B013312029A401300E1680A06A7490D
:101FF000120F8A5CD340A64A1360A64B1868FFF7FD
:102000001DFF0028C0D12B681B0700D5E3E02B681B
:102010005B0700D505E16B6A002B00D08CE1002046
:10202000B2E7082E04D00C2E09D1019A002A06D05E
:1020300023689B03B6D56B68002BB3D1A3E76A680E
:102040009A4211D1226813432360FFF73BFF070038
:102050008022236892021342A4D1FFF733FFC01BF2
:102060006428F5D903208FE7A021C9028A4205D14F
:1020700080222168D2020A432260E3E72168864871
:102080000140216021680B400593059B834923682B
:102090000B402360002AD8D1FFF714FF07008022ED
:1020A00023689202134200D17CE7FFF70BFFC01BAD
:1020B0006428F4D9D6E7EA68042E04D00C2E26D181
:1020C000019B002B23D123685B0702D5002A00D196
:1020D00059E761682B6972481B0201400B430921D3
:1020E000636023688B4313432360FFF703FFE368B8
:1020F000664A1B061B0FD35CD840654B1860654BC6
:102100001868FFF79BFE002800D14FE73CE72368E3
:10211000002A18D009218B4313432360FFF7D2FE16
:10212000070004222368134207D062682B695C49C8
:102130001B020A401343636038E7FFF7C3FEC01B6E
:102140000228EED98EE7012293432360FFF7BAFEFF
:10215000070004222368134200D127E7FFF7B2FEED
:10216000C01B0228F5D97DE7AB69002B20D0802366
:1021700022685B0013432360FFF7A4FE0700802260
:102180002368920013420DD063683F4A13402A6AC5
:10219000134363606268EB6912021B06120A134361
:1021A000636030E7FFF78EFEC01B0228E7D959E7CE
:1021B00023683C4A13402360FFF784FE0700802217
:1021C00023689200134200D11DE7FFF77BFEC01B7E
:1021D0000228F4D946E76A690123002A10D0226D4B
:1021E00013432365FFF76EFE07000222236D13429F
:1021F00000D00CE7FFF766FEC01B0228F5D931E7D7
:10220000226D9A432265FFF75DFE07000222236DCF
:10221000134200D1FBE6FFF755FEC01B0228F5D99B
:1022200020E780230021A26B5B0501911A4204D1B3
:10223000A26B1343A3630123019380221A4F520020
:102240003B68134208D08022AB68520093422DD1E4
:10225000226D134323654EE080223B6852001343F6
:102260003B60FFF72FFE80235B00029003933B68E7
:10227000039A1342E7D1FFF725FE029BC01A642898
:10228000F5D9EFE600100240FF1FFFFF7B3000088A
:102290006814002064140020FFFFFEFFFFFFFBFF17
:1022A000FFE0FFFFFFFEFFFF00700040002B16D194
:1022B000236D534A13402365236D524A134023650F
:1022C000FFF700FE07008022236D920013422AD000
:1022D000FFF7F8FD4C4BC01B9842F4D9C2E6A02191
:1022E000C9008B420BD18023216DDB000B4323659A
:1022F000236D1A432265FFF7E5FD07000EE0236D0D
:102300003F4A13402365236D3E4A1340A2E7FFF77F
:10231000D9FD3D4BC01B984200D9A3E68022236D16
:1023200092001342F3D0019B012B00D073E6A36B04
:10233000364A1340A3636EE60C2E43D0344A022B78
:102340002ED12368802613402360FFF7BBFD0700D2
:10235000B604236833421DD1E96AAB6AE2680B43D5
:102360002C490A4013432A6B80251343E3608023E2
:1023700022685B0413432360FFF7A4FD0600AD044D
:1023800023682B4200D04AE6FFF79CFD801B022801
:10239000F6D967E6FFF796FDC01B0228D9D961E69A
:1023A0002368802513402360FFF78CFD0600AD04F1
:1023B00023682B4200D132E6FFF784FD801B022800
:1023C000F6D94FE61800012B00D1DDE58022E36845
:1023D000A96A52021A4001208A4200D0D4E5F022B4
:1023E000E96A92031A408A4200D0CDE5C020000479
:1023F0000340286B181A431E9841C0B2C4E5C0467A
:10240000FFFEFFFFFFFBFFFF88130000FFFFFFEF52
:10241000FFFFFFFEFFFF02FFF7B5061E019101D18E
:102420000120FEBD01255B4C019A23682B4093429D
:1024300031D33268930743D4D30749D401252368A5
:10244000019A2B409A4209D22368AB432360FFF7DD
:1024500039FD070023682B4200D08CE032684E4CD7
:10246000530700D58FE0130706D5E26833694B495F
:10247000DB000A401343E360FFF73CFDE368484A92
:102480001B061B0FD35CD840464B1860464B1868A0
:10249000FFF7D4FCC5E72368019AAB4313432360DD
:1024A000FFF710FD07002368019A2B409A42C0D025
:1024B000FFF708FD3D4BC01B9842F4D90320B0E75D
:1024C000F0203549CB688343B0680343CB60B3E762
:1024D000314D72682B68022A18D19B03A0D50321C5
:1024E000EB688B431343EB60FFF7ECFC736807006A
:1024F000022B18D10C22EB681340082B9ED0FFF75B
:10250000E1FC2A4BC01B9842F4D9D7E7032A02D139
:102510009B01E4D484E7012A02D15B07DFD47FE783
:102520009B05DCD47CE7032B0BD10C22EB6813401A
:10253000934283D0FFF7C6FC1C4BC01B9842F4D9D2
:10254000BCE7012B11D00C22EB68134200D175E7D8
:10255000FFF7B8FC154BC01B9842F4D9AEE7FFF764
:10256000B1FC124BC01B9842A8D80C22EB68134058
:10257000042BF4D162E7FFF7A5FC0C4BC01B98427B
:1025800000D867E79AE7E36809490B40F1680B4315
:10259000E36068E70020024000100240FFC7FFFF31
:1025A0007B300008681400206414002088130000A9
:1025B000FFF8FFFF044B054ADB685B055B0FD35C4C
:1025C000034A1068D8407047001002408B30000862
:1025D00068140020044B054ADB689B045B0FD35C46
:1025E000034A1068D8407047001002408B30000842
:1025F000681400200368F7B505009B062AD58023E0
:102600000021554C5B05A26B00911A4204D1A26BCC
:102610001343A363012300938027504E7F00336848
:102620003B4247D0C022C02120686B689203104013
:1026300089021A4090424ED1226D0A4054D12B6833
:102640009B0600D575E0009B012B03D1A36B444A88
:102650001340A3632B68DA0706D503203E49CA6CF2
:102660008243A8680243CA649A0706D50C203A49F7
:10267000CA6C8243E8680243CA645A0706D53649E1
:102680003848CA6C024028690243CA641A0706D552
:1026900031493548CA6C024068690243CA64002067
:1026A0001B0617D52C4A3149D36C0B40A9690B4343
:1026B000D3640FE033683B433360FFF703FC0190C2
:1026C00033683B42AED1FFF7FDFB019BC01A642883
:1026D000F6D90320FEBD1A000A408A42ACD1226816
:1026E00001209203A8D5F5E70B409A42A7D02B68AA
:1026F0009B06A4D58022216D206D12030243226522
:10270000226D1B4B1B480B40024022652365CB0505
:1027100095D5FFF7D7FB80270600BF00236D3B420E
:1027200000D08CE7FFF7CEFB134B801B9842F5D906
:10273000CFE76968C0230A009B021A409A4207D17A
:1027400023680E480340C020800301400B432360F0
:10275000236D1A43226576E70010024000700040A6
:10276000FFFFFFEFFFF3FFFFFFCFFFFFFFFFF3FFD1
:10277000FFFFFCFFFFFFF7FF88130000FFFFCFFF05
:10278000F0B5584A0B688218541EA24187B00493D2
:102790000023053203910592049ADA4001D107B073
:1027A000F0BD012637009F40049A3A40029200D1C2
:1027B00095E00324039A526801922240551EB542C7
:1027C0002DD859008C408C4685680399A543CC6868
:1027D00061468C40019925430C0934409C4085603A
:1027E0004568BD432C43446003255E00B540C46882
:1027F0000399AC438D68B5402C43C460022A10D1C4
:1028000007250F271D40AD00AF40DC08A4000419C8
:10281000266ABE430F69AF403E43266201E0032AA9
:10282000E2D1032637005D00AF40AA400468019959
:10283000BC431443C0229202046011424FD00127CE
:10284000294C1D00626B35403A436263274A9C085D
:10285000A400A418A268AD0094460F226146AA40C5
:102860009143A022D2059446002260450DD0204A13
:1028700094463A00604508D01E4F9218B84204D0E2
:102880001D4F3200B84200D0059AAA400A4302996F
:10289000A2600D00194ACC43966801993543C902DC
:1028A00001D4350025409560D668029D01993543D5
:1028B000890201D435002540D5605668029D0199F2
:1028C0003543890301D43500254055601568029EC3
:1028D00001992E43C90301D425402E00166001330F
:1028E0005AE7C04600E4FFAF00100240000001407C
:1028F0000004005000080050000C0050000401408B
:10290000344AF0B58218541EA241002385B0053226
:1029100003920A00DA4001D105B0F0BD01229A40CD
:10292000160000920E4053D02B4C9A0892001219B8
:102930009468032527000F241D40AD00AC4001948E
:102940003C400294A024E405A446002460450DD038
:10295000224CA4460124604508D0214F2419B842D6
:1029600004D0204F0134B84200D0039CAC40029DFB
:10297000A54211D1F6431C4C256835402560656899
:1029800035406560E5683540E560A5682E40A66085
:102990009468019DAC43946003225D00AA40072522
:1029A0000F271D40AD00AF40D543046814430460B9
:1029B000DC08A4000419266A009ABE432662C46893
:1029C0002C40C46044689443446082682A4082601A
:1029D00001339EE700E4FFAF000001400004005017
:1029E00000080050000C005000040140006908403D
:1029F000411E8841C0B27047002A01D081617047F2
:102A00008162FCE770B58901002812DB8308134A54
:102A100003249B009B18FF222040A0401400C025E7
:102A2000844011408140AD005E59A6433143595165
:102A300070BD03240F23C0B203402040A040FC34EB
:102A40002500214085408140083B054A9B089B00AA
:102A50009B18DA69AA431143D961E9E700E100E074
:102A600000ED00E0002805DB1F2318401E3B8340DB
:102A7000014A13607047C04600E100E0094A431E66
:102A8000012093420DD8C021074A08485360036AC9
:102A900009061B021B0A0B430362002007239060F8
:102AA00013607047FFFFFF0010E000E000ED00E062
:102AB000002902D14260080070470120FCE7012391
:102AC000002801D0002301601800704730B5EFF3F3
:102AD0001084012282F310880168124D0B682B408C
:102AE0000B6084F31088EFF3108482F31088016880
:102AF0008B6893438B6084F31088036E93420AD1F2
:102B0000EFF3108183F31088102402681368A34345
:102B1000136081F310882022031DDA670023036607
:102B2000836630BDDFFEFFFFF8B504002569A268AB
:102B300003682A436569C1692A4318686B4D0A43D3
:102B4000284002431A605A6869486A4D0240E068AA
:102B500002435A60A069AB4201D0226A10439A68CE
:102B6000654E324002439A60644A934213D1032275
:102B7000634BDB6C1340634AD05C80231B02994299
:102B800000D084E008281ED8FDF76CFB565B5E1D64
:102B9000791D1D1D7C005C4A934205D10C22584BC7
:102BA000DB6C1340594AE7E7AB4200D097E0C02105
:102BB0008020534A0901D36CC0000B40834236D0B9
:102BC00003D8002B0AD001200DE0802000018342B1
:102BD0000DD08B42F7D1802000020CE0FFF7EAFC19
:102BE000002808D100200023A366E366F8BD13681F
:102BF000DB061FD54648032263685A438242E2D867
:102C00001A038242DFD30027020E01025E088919EF
:102C10007A41080011001A003B00FDF7B9FB3D4B5B
:102C2000C2183D4B9A42CED82368D860DAE7FFF746
:102C300061F9D5E73948DEE7FFF7BCFC002808D189
:102C4000D0E7FFF7C7FCF9E72D4B1B68DB061CD567
:102C50002F48636840005B08C0186168FDF70CFBF3
:102C600002002F4B103A9A42ADD80F230200000702
:102C70009A4393B2400F22681843D060B2E7FFF73F
:102C800039F9DBE780200002E3E72448E1E7082880
:102C900099D8FDF7DDFA050A0D981C9898981F0041
:102CA000FFF788FC002808D19CE7FFF793FCF9E7C1
:102CB000134B1B68DB0610D51548636861685B0819
:102CC0001818FDF7D9FA0200154B103AAAE7FFF7DA
:102CD00011F9E7E780200002EFE71048EDE78023D5
:102CE00001201B02994200D17DE76CE7F369FFEFF9
:102CF000FFCFFFFF00480040FFF4FFFF0038014016
:102D0000001002406A300008004400406E300008A5
:102D100000093D0000FDFFFFFFFC0F000024F40050
:102D2000EFFF0000436A30B5DA0706D50168284C8A
:102D30004A682240846A22434A609A0706D501689D
:102D4000244C4A682240C46A22434A605A0706D586
:102D50000168214C4A682240046B22434A601A07EA
:102D600006D501681D4C4A682240446B22434A60E4
:102D7000DA0606D501681A4C8A682240846B224321
:102D80008A609A0606D50168164C8A682240C46B90
:102D900022438A605A0610D50168134D4A68046CB4
:102DA0002A4022434A6080225203944205D14A6855
:102DB0000E4C2240446C22434A601B0606D5026832
:102DC0000B4953680B40816C0B43536030BDC046C8
:102DD000FFFFFDFFFFFFFEFFFFFFFBFFFF7FFFFF8A
:102DE000FFEFFFFFFFDFFFFFFFFFEFFFFFFF9FFF93
:102DF000FFFFF7FFF7B504000E00082700920193CC
:102E00002268D36933409B1B59424B4100998B4246
:102E100001D000201EE0089B0133F2D0FFF752F8EA
:102E2000019BC01A089B834224D3002B22D004218B
:102E300023681A680A42E3D0DD693D400BD02000C8
:102E40001F62FFF743FE23000833DF6700230120E2
:102E500078342370FEBD8022D96912011142CFD08F
:102E60001A622000FFF732FE230020220833783454
:102E7000DA6725700320EDE70300F7B500250400AD
:102E80000833DD67FFF71EF82600236807001B687C
:102E900078361B071BD58021264B2A000093890317
:102EA00003002000FFF7A6FFA84210D0EFF3108127
:102EB000012383F310888020226813688343136002
:102EC00081F310882023E36735700320FEBD2500C1
:102ED00008CD1B685B0725D58021164B0022009387
:102EE000C9033B002000FFF785FF00281AD0EFF34D
:102EF0001080012282F3108821680F4F0B683B403D
:102F00000B6080F31088EFF3108082F31088216843
:102F10008B6893438B6080F310882023EB6700233A
:102F20003370D2E700202023E367EB6720666066FA
:102F30003070CBE7FFFFFF01DFFEFFFF10B5041E7F
:102F400001D1012010BDC36F002B04D102007832E3
:102F50001370FDF711FD242301212268E367136834
:102F600020008B431360FFF7DFFD0128E9D0636A7F
:102F7000002B02D02000FFF7D5FE236807495A68CE
:102F800020000A402A215A609A688A439A600122E6
:102F900019680A431A60FFF76FFFD3E7FFB7FFFF17
:102FA0008022104B520019680A431A60DA680E49F1
:102FB0000A40DA601A680D490A4001211A609A68CD
:102FC0008A439A601A680A490A401A60DA6809490D
:102FD0000A40DA6000221A618022074B12059A60CB
:102FE0007047C046001002400C40FF88F6FFF6FE16
:102FF000FFFFFBFFFFFF02FF00ED00E00D488546ED
:10300000FFF7CEFF0C480D490D4A002302E0D458CB
:10301000C4500433C4188C42F9D30A4A0A4C002322
:1030200001E013600432A242FBD3FDF7A3F8FDF7E1
:103030001FFBFEE700200020000000206C14002091
:10304000AC3000086C140020A0150020FEE7000042
:10305000F8B5C046F8BC08BC9E467047F8B5C046F7
:08306000F8BC08BC9E46704755
:1030680000010104020800101010041010100210D2
:103078001010080000000000000000010203040610
:103088000708090000000001020304030406080CF5
:0430980010182030BC
:08309C0088D3FF7F0100000052
:0430A40039010008E6
:0430A8000D0100080E
:1030AC00FFFFFFFFFFFFFFFFFFFFFFFFFFFFFFFF24
:1030BC00FFFFFFFFFFFFFFFFFFFFFFFFFFFFFFFF14
:1030CC00FFFFFFFFFFFFFFFFFFFFFFFFFFFFFFFF04
:1030DC00FFFFFFFFFFFFFFFFFFFFFFFFFFFFFFFFF4
:1036BC00FF803FF803FFFFFFFFFFFFFFFFFFFFFE51
:1036CC00007FFFFFFFFFFFFFFFFF803FF801FFFFC1
:1036DC00FFFFFFFFFFFFFFFFFE007FFFFFFFFFFF6E
:1036EC00FFFFFFC03FF801FFFFFFFFFFFFFFFFFFE2
:1036FC00FFFE003FFFFFFFFFFFFFFFFFC01FF801B2
:10370C00FFFFFFFFFFFFFFFFFFFFFF003FFFFFFF7C
:10371C00FFFFFFFFFFC01FFC01FFFFFFFFFFE00FDC
:10372C00FFFFFFFF003FFFFFFFFFFFFFFFFFC01F7B
:10373C00FC00000000003FE00F803FFFFF003FFF58
:10374C00FFFFFFFFFFFFFFC01FFC00000000003F5A
:10375C00E00F803FFFFF003FFFFFFFFFFFFFFFFF7A
:10376C00C01FFC00000000003FF00F803FFFFF0077
:10377C003FFFFFFFFFFFFFFFFFE00FFC000000001B
:10378C00001FF00FC03FFFFF001FFFFFFFFFFFFFF9
:10379C00FFFFE00FFC00000000001FF000003FFFE7
:1037AC00FF801FFFFFFFFFFFFFFFFFE00FFE00008A
:1037BC000000001FF000003FFFFF801FFFFFFFFF16
:1037CC00FFFFFFFFE00FFE00000000001FF00000F5
:1037DC001FFFFF000FFFFFFFFFFFFFFFFFE00FFECC
:1037EC00007FE007FFFFF000001000000000000F5A
:1037FC00FFFFFFFFFFFBF00FFE007FF007FFFFF85E
:10380C0000001000000000000FFFFFFFFFFFF9F0A9
:10381C0007FE007FF007FFFFF8000010000000001B
:10382C00000FFFFFFFFFFFF9F007FF007FF007FF1E
:10383C00FFF800001000000000000FFFFFFFFFFF6B
:10384C00F8F007FF007FF003FFFFF800000800000E
:10385C0000000007FFFFFFFFFFF87007FF007FF07D
:10386C0003FFFFF8000008000000000007FFFFFF47
:10387C00FFFFF87007FF003FF003FFFFFC03E008B9
:10388C00000000000007FFFFFFFFFFF83807FF00F4
:10389C003FF803FFFFFC03E008000000000007FFF7
:1038AC00FFFFFFFFF83803FF00000000001FFC03C0
:1038BC00F008000000000007FFFFFFFFFFF81803EF
:1038CC00FF80000000001FFC01F00FFFFFE007FF6E
:1038DC00FFFFFFFFFFFFF01803FF80000000001F39
:1038EC00FC01F007FFFFE007FFFFFFFFFFFFFFF00A
:1038FC000803FF80000000000FFC01F007FFFFE051
:10390C0007FFFFFFFFFFFFFFF008039F8000000091
:10391C00000FFE01F007FFFFE007FFFFFFFFFFFFB7
:10392C00FFF804018F80000000000FFE01F007FF7C
:10393C00FFE003FFFFFFFFFFFFFFF8000107800020
:10394C000000000FFE00F80780000000000FFFFFD2
:10395C00FFFFFFFC000103C0000000000FFE00F899
:10396C0007C0000000000FFFFFFFFFFFFE0000017B
:10397C00C01FFC00FFFFFE00F803C0000000000F9A
:10398C00FFFFFFFFFFFF000000C00FFC00FFFFFE6A
:10399C0000F803C0000000000FFFFFFFFFFFFF0057
:1039AC000000C00FFE00FFFFFF00F803C000000086
:1039BC000007FFFFFFFFFFFF800001C00FFE00FFAD
:1039CC00FFFF00FC03C00000000007FFFFFFFFFF2C
:1039DC00FFC00001E00FFE00FFFFFF007C03E000D2
:1039EC0000000007FFFFFFFFFFFFC00003E00FFE1A
:1039FC00007FFFFF000001E00000000007FFFFFF59
:103A0C00FFFFFFE00007E00FFE007FFFFF0000015B
:103A1C00E001F800FFFFFFFFFFFFFFFFE0000F607A
:103A2C0007FE007FFFFF800001F001F801FFFFFFA0
:103A3C00FFFFFFFFFFF0001F200000000003FF80CE
:103A4C000001F800F800FFFFFFFFFFFFFFFFF80089
:103A5C003F000000000003FF800001F800FC00FFA5
:103A6C00FFFFFFFFFFFFFFF8007F000000000003D7
:103A7C00FF800001FC007C00FFFFFFFFFFFFFFFF4A
:103A8C00FC007F000000000003FF800000FE003CF3
:103A9C0000FFFFFFFFFFFFFFFFFC007F00000000A7
:103AAC000001FF800000FF001C00FFFFFFFFFFFF75
:103ABC00FFFFFE007E000000000001FFC00000FFC1
:103ACC00001FFFFFFFFFFFFFFFFFFFFE003E000098
:103ADC0000000001FFC03E00FF800FFFFFFFFFFF53
:103AEC00FFFFFFFF000000000000000001FFC01FEF
:103AFC0000FF8007FFFFFFFFFFFFFFFFFF0000003D
:103B0C000003FF801FFFFFC01F00C000000000006B
:103B1C007FFFFFFFFFFF0000000003FF801FFFFF80
:103B2C00C01F004000000000007FFFFFFFFFFF00F0
:103B3C0000000001FF801FFFFFC01F0040000000BD
:103B4C0000007FFFFFFFFFFF0000000001FFC01F10
:103B5C00FFFFE01F004000000000007FFFFFFFFFA1
:103B6C00FF8000000001FFC01FFFFFE01F8060000E
:103B7C00000000007FFFFFFFFFFF8000000001FF3F
:103B8C00C01FFFFFE00F806000000000007FFFFF00
:103B9C00FFFFFF8000000001FFC00FFFFFE00F8060
:103BAC002000000000003FFFFFFFFFFF800000200F
:103BBC0000FFC00FFFFFE00F802000000000003F5F
:103BCC00FFFFFFFFFFFFC01FF000000000003FF0F1
:103BDC000F803FFE001FFFFFFFFFFFFFFFFFFFE017
:103BEC001FF800000000003FF00F803FFF001FFF98
:103BFC00FFFFFFFFFFFFFFFFE00FF80000000000DA
:103C0C003FF00FC03FFF800FFFFFFFFFFFFFFFFFE5
:103C1C00FFE00FFC00000000003FF007C0380380FD
:103C2C0007FF803FFFFFFFFFFFFFE00FFE000000DC
:103C3C0000003FF007C01803C007FF803FFFFFFFE5
:103C4C00FFFFFFE00FFE00000000001FF007C01890
:103C5C0001C003FF801FFFFFFFFFFFFFE00FFF000E
:103C6C00000000001FF800001801E003FF801FFF98
:103C7C00FFFFFFFFFFF007FF801FFC07FFFFF800AF
:103C8C00001801E01FFF801FFFFFFFFFFFF0000780
:103C9C00FF801FFE03FFFFF800001C000000000067
:103CAC001FFFFFFFFFFFF00007FFC00FFC00FFFF2F
:103CBC00F800001C00000000001FFFFFFFFFFFF0DA
:103CCC0000000FC00FFC007FFFF800000C0000008C
:103CDC0000001FFFFFFFFFFFF0000007E007F800E8
:103CEC007FFFF800000C00000000000FFFFFFFFF3B
:103CFC00FFF000000FE007F800FFFFFC00000C00D5
:103D0C00000000000FFFFFFFFFFFF000000FF003AB
:103D1C00F000FFFFFC00000C00000000000FFFFF94
:103D2C00FFFFFFF000000FF003F001FFFFFFFFFFAC
:103D3C00FE00000000000FFFFFFFFFFFF000000F70
:103D4C00F801E001FFFFFFFFFFFE00000000000F85
:103D5C00FFFFFFFFFFFF00000FF801E003FFFFFF75
:103D6C00FFFFFE000000000007FFFFFFFFFFFFFF4B
:103D7C00C00FFC00E003FFFFFFFFFFFFFFFFFFFF93
:103D8C00FFFFFFFFFFFFFFFFFFFF8FFC03FC07FFA1
:103D9C00FFFFFFFFFFFFFFFFFFFFFFFFFFFFFFFF27
:103DAC00FFFFFFFFFE3FFF0FFFFFFFFFFFFFFFFFC8
:103DBC00FFFFFFFFFFFFFFFFFFFFFFFFFFFFFFFF07
:103DCC00CFFFFFFFFFFFFFFFFFFFFFFFFFFFFFFF27
:103DDC00FFFFFFFFFFFFFFFFFFFFFFFFFFFFFFFFE7
:103DEC00FFFFFFFFFFFFFFFFFFFFFFFFFFFFFFFFD7
:103DFC00FFFFFFFFFFFFFFFFFFFFFFFFFFFFFFFFC7
:103E0C00FFFFFFFFFFFFFFFFFFFFFFFFFFFFFFFFB6
:10442C00FFFFFFFFFFFFFFFF470E00083D0E0008D8
:10443C00A10D0008730E00088D0E0008AB0D0008CE
:10444C00BD0D000803000006000000000400000081
:10445C000000005000000000000000000000000000
:10446C000000000080484000000000000000000038
:10447C004048800000000000000000008048400020
:10448C000000000000000000404880000000000018
:10449C000000000000000000000000000000000010
:1044AC000A000000000000080100080100020A00D8
:1044BC0000000000000000000000000000000000F0
:1044CC0000000000000000000000000000000000E0
:1044DC0000000000000000000000000000000000D0
:1044EC0000000000000000000000000000000000C0
:1044FC00000000002222222222220000002217416A
:0C450C000032200104000000000020002C
:0400000508002FFDC3
:00000001FF
